{
  "block": {
    "hash": "00000000de1250dc2df5cf4d877e055f338d6ed1ab504d5b71c097cdccd00e13",
    "confirmations": 269239,
    "strippedsize": 216,
    "size": 216,
    "weight": 864,
    "height": 30000,
    "version": 1,
    "versionHex": "00000001",
    "merkleroot": "37be054a52112c5f8d2c06d965813a63cc8bd1598133836aec883914c5cf14a7",
    "tx": [
      { "txid": "37be054a52112c5f8d2c06d965813a63cc8bd1598133836aec883914c5cf14a7",
        "hash": "37be054a52112c5f8d2c06d965813a63cc8bd1598133836aec883914c5cf14a7",
        "version": 1,
        "size": 135,
        "vsize": 135,
        "locktime": 0,
        "vin": [ { "coinbase": "04ffff001d02d304", "sequence": 4294967295 } ],
        "vout": [
          { "value": 50,
            "n": 0,
            "scriptPubKey":
            {
              "asm": "04197ce6604dd1cf5a36fc817dfda6b0eec419875c5b8df508823254fb32ff8a064799e600966d7d5083b435f864f3c555c4d41d1e74113b76d912ea6bb63d0b39 OP_CHECKSIG",
              "hex": "4104197ce6604dd1cf5a36fc817dfda6b0eec419875c5b8df508823254fb32ff8a064799e600966d7d5083b435f864f3c555c4d41d1e74113b76d912ea6bb63d0b39ac",
              "reqSigs": 1,
              "type": "pubkey",
              "addresses": [ "1FuXfSvK4UHFvjoTJjUxgnj9x2T3DujzjM" ] }
          }
        ],
        "hex": "01000000010000000000000000000000000000000000000000000000000000000000000000ffffffff0804ffff001d02d304ffffffff0100f2052a01000000434104197ce6604dd1cf5a36fc817dfda6b0eec419875c5b8df508823254fb32ff8a064799e600966d7d5083b435f864f3c555c4d41d1e74113b76d912ea6bb63d0b39ac00000000"
      }
    ],
    "time": 1261007544,
    "mediantime": 1261004323,
    "nonce": 2747428616,
    "bits": "1d00ffff",
    "difficulty": 1,
    "chainwork": "0000000000000000000000000000000000000000000000000000753175317531",
    "previousblockhash": "00000000b3cc5384f93014f783d86d6e209ad5ca7dc5a613c4f994fa984168c6",
    "nextblockhash": "0000000050a8248e6eda4db7b5919491746c06e2ca458b22c35d8d72b3f3e5b6"
  },
  "blockCount": 302441,
  "PendingTransaction": {
    "hash": "a90dbee0f3c47b6bf98a906c40961bdf630bd08f820accd5294c6a7a94ba94b9",
    "hex": "0100000001ce8040049f5099ce975022ef4918c04225a63bea7826d08a1bfd4bae27efcbee010000006b483045022100fc4404ccdb70905fb1ed9c70ddc8e09f95a9c5a9090c1d8a0964f6a208e58fd3022044e39603e6373b017011871d1e1157af5d7abfb095d24f159629c7d6cde6111e012102bbbaad1c7e934fcbc6c5b624cfa1ac611e42fb690edef5b869116ebf76ea267fffffffff02b0300100000000001976a9145c850534fbe75f5a778d71a1eaf4ae8697b0201788ac082c3a0f000000001976a9147eaff793dff4a2ad111c32d763c8d5ae3a5b5f2b88ac00000000",
    "locktime": 0,
    "size": 226,
    "txid": "a90dbee0f3c47b6bf98a906c40961bdf630bd08f820accd5294c6a7a94ba94b9",
    "version": 1,
    "vin": [
      {
        "scriptSig": {
          "asm": "3045022100fc4404ccdb70905fb1ed9c70ddc8e09f95a9c5a9090c1d8a0964f6a208e58fd3022044e39603e6373b017011871d1e1157af5d7abfb095d24f159629c7d6cde6111e[ALL] 02bbbaad1c7e934fcbc6c5b624cfa1ac611e42fb690edef5b869116ebf76ea267f",
        "hex": "483045022100fc4404ccdb70905fb1ed9c70ddc8e09f95a9c5a9090c1d8a0964f6a208e58fd3022044e39603e6373b017011871d1e1157af5d7abfb095d24f159629c7d6cde6111e012102bbbaad1c7e934fcbc6c5b624cfa1ac611e42fb690edef5b869116ebf76ea267f"
        },
        "sequence": 4294967295,
        "txid": "eecbef27ae4bfd1b8ad02678ea3ba62542c01849ef225097ce99509f044080ce",
        "vout": 1
      }
    ],
    "vout": [
      {
        "n": 0,
        "scriptPubKey": {
          "addresses": [
            "mox9p7n3MPFqSXnzSD55c9YdEZo2gxWH1K"
          ],
          "asm": "OP_DUP OP_HASH160 5c850534fbe75f5a778d71a1eaf4ae8697b02017 OP_EQUALVERIFY OP_CHECKSIG",
          "hex": "76a9145c850534fbe75f5a778d71a1eaf4ae8697b0201788ac",
          "reqSigs": 1,
          "type": "pubkeyhash"
        },
        "value": 0.00078
      },
      {
        "n": 1,
        "scriptPubKey": {
          "addresses": [
            "ms4pEdg3zu4cdy9yjye1BUta9mwNGMTKgD"
          ],
          "asm": "OP_DUP OP_HASH160 7eaff793dff4a2ad111c32d763c8d5ae3a5b5f2b OP_EQUALVERIFY OP_CHECKSIG",
          "hex": "76a9147eaff793dff4a2ad111c32d763c8d5ae3a5b5f2b88ac",
          "reqSigs": 1,
          "type": "pubkeyhash"
        },
        "value": 2.554706
      }
    ],
    "vsize": 226
  },
  "rawTransaction": {
    "hex": "01000000019022e78642556532aab2050dc02a35be578edc7e7ec4f9192078220dbe4fbdb0000000006b483045022100917f5d0811e889fb99c9bd419256372ba871bb50ef3dceccc2016f7be92def50022033e8af654ebb60fe4d5ff1e967c879e1bf3a01a74545b63c562dd914d39cdd94412103e2edec7fba04d8d364c9dc82aa157093bb725c1d730f965b87a067259b84bbffffffffff02f0c70600000000001976a91469cd4bad52a9fa315e911d1ef1c7ddd26bd06b1b88ac4ad80000000000001976a91433db1e9ad789c63001e45026b2e51ad121ad597988ac00000000",
    "txid": "be172342528e4f0a6b71870143a24708dc4c4e4c8063a5a707b75640420cfa74",
    "hash": "be172342528e4f0a6b71870143a24708dc4c4e4c8063a5a707b75640420cfa74",
    "size": 226,
    "version": 1,
    "locktime": 0,
    "vin": [
      {
        "txid": "b0bd4fbe0d22782019f9c47e7edc8e57be352ac00d05b2aa3265554286e72290",
        "vout": 0,
        "scriptSig": {
          "asm": "3045022100917f5d0811e889fb99c9bd419256372ba871bb50ef3dceccc2016f7be92def50022033e8af654ebb60fe4d5ff1e967c879e1bf3a01a74545b63c562dd914d39cdd94[ALL|FORKID] 03e2edec7fba04d8d364c9dc82aa157093bb725c1d730f965b87a067259b84bbff",
          "hex": "483045022100917f5d0811e889fb99c9bd419256372ba871bb50ef3dceccc2016f7be92def50022033e8af654ebb60fe4d5ff1e967c879e1bf3a01a74545b63c562dd914d39cdd94412103e2edec7fba04d8d364c9dc82aa157093bb725c1d730f965b87a067259b84bbff"
        },
        "sequence": 4294967295
      }
    ],
    "vout": [
      {
        "value": 0.004444,
        "n": 0,
        "scriptPubKey": {
          "asm": "OP_DUP OP_HASH160 69cd4bad52a9fa315e911d1ef1c7ddd26bd06b1b OP_EQUALVERIFY OP_CHECKSIG",
          "hex": "76a91469cd4bad52a9fa315e911d1ef1c7ddd26bd06b1b88ac",
          "reqSigs": 1,
          "type": "pubkeyhash",
          "addresses": [
            "bitcoincash:qp5u6jad225l5v27jyw3auw8mhfxh5rtrvvtavzakw"
          ]
        }
      },
      {
        "value": 0.0005537,
        "n": 1,
        "scriptPubKey": {
          "asm": "OP_DUP OP_HASH160 33db1e9ad789c63001e45026b2e51ad121ad5979 OP_EQUALVERIFY OP_CHECKSIG",
          "hex": "76a91433db1e9ad789c63001e45026b2e51ad121ad597988ac",
          "reqSigs": 1,
          "type": "pubkeyhash",
          "addresses": [
            "bitcoincash:qqeak85667yuvvqpu3gzdvh9rtgjrt2e0ysrnmcd7j"
          ]
        }
      }
    ],
    "blockhash": "0000000000000000006bb1da1dddb20ebc0d0f2186c04aea5e2572895949390a",
    "confirmations": 857,
    "time": 1527241465,
    "blocktime": 1527241465
  }
}