{
  "block": {
    "hash":"9a83b80026d747a81806ec8b8fba689d57dc99977877f7d42b379c27604fa626",
    "confirmations":38,
    "strippedsize":939,
    "size":1193,
    "weight":4010,
    "height":637706,
    "version":536870912,
    "versionHex":"20000000",
    "merkleroot":"5feb1c0844daf4eb331d46b2fa2cd2edd8e8f5feb8368391f03f8eaa904fa258",
    "tx":[{"txid":"d7191813eabcf9f56c515f15c5c98e4f5219778ee2240539058df5ab3493ebeb",
      "hash":"0d10bb8c24261c7d0e79b557daf202672410bff54635455f41b5967cd41251d6",
      "version":1,
      "size":172,
      "vsize":145,
      "locktime":0,
      "vin":[
        {
          "coinbase":"030abb09",
          "sequence":4294967295
        }
      ],
      "vout":[
        {
          "value":50.00154552,
          "n":0,
          "scriptPubKey":{
            "asm":"OP_DUP OP_HASH160 7e1132724efa4bae4a84e5d952be935f5a64fac4 OP_EQUALVERIFY OP_CHECKSIG",
            "hex":"76a9147e1132724efa4bae4a84e5d952be935f5a64fac488ac",
            "reqSigs":1,
            "type":"pubkeyhash",
            "addresses":["ms1Y36auM43aUy7RXfapBhVPv76C9ykSRB"]
          }
        },
        {
          "value":0,
          "n":1,
          "scriptPubKey":{
            "asm":"OP_RETURN aa21a9ed77ca85a22ad1c95ade761ddcd3189ee777bdf40b1259ccd38d12639898bf486e",
            "hex":"6a24aa21a9ed77ca85a22ad1c95ade761ddcd3189ee777bdf40b1259ccd38d12639898bf486e",
            "type":"nulldata"
          }
        }
      ],
      "hex":"010000000001010000000000000000000000000000000000000000000000000000000000000000ffffffff04030abb09ffffffff02b84d082a010000001976a9147e1132724efa4bae4a84e5d952be935f5a64fac488ac0000000000000000266a24aa21a9ed77ca85a22ad1c95ade761ddcd3189ee777bdf40b1259ccd38d12639898bf486e0120000000000000000000000000000000000000000000000000000000000000000000000000"
    },
      {
        "txid":"09e8d4424faa73322defe966035814b2f2b82f184320c2be5db88260e85f8427",
        "hash":"107357c7c5bc31346414cb18a6cf33ed4d6f0893c68c5f3c07334c69d2c41f42",
        "version":2,
        "size":420,
        "vsize":257,
        "locktime":637704,
        "vin":[
          {
            "txid":"c200462a4bc73e4a4f39d2ae71d6a0f033416bf6e4bb75efe9e2c4cecae66538",
            "vout":0,
            "scriptSig":{
              "asm":"0014f8ee91099da54f084a0fb1dfebbd0be4925d227a",
              "hex":"160014f8ee91099da54f084a0fb1dfebbd0be4925d227a"
            },
            "txinwitness":[
              "3045022100b46edd9877231e637eb8868c6fa9240e403dd839fb998d156b9915baa05743e00220393ac1aac6f6a9614d493fae77f9a8ea980ef9dde1bbf420993a733394031c2a01",
              "03d6cff4fd64d78a35e45668d7204053cdc6f922a961b962bd863140c1fc44675c"],
            "sequence":4294967294
          },
          {
            "txid":"c200462a4bc73e4a4f39d2ae71d6a0f033416bf6e4bb75efe9e2c4cecae66538",
            "vout":1,
            "scriptSig":{
              "asm":"0014dc4598fbf1e17f4de107a1ee3497af7eefac73ea",
              "hex":"160014dc4598fbf1e17f4de107a1ee3497af7eefac73ea"
            },
            "txinwitness":[
            "3045022100a537585151f62420ff2a3a236b1320f3f773b73f54bb507afc77f474d9669b38022052c85f0cb25e7e73655eb9f4e5c3f22e1c988eb5eaf7a08ad8c46801ebdfc97b01",
              "031202fb4187b17c2a8360d4f49a87e7c9424aeed3f52d3ec122c10d5a7075a5f4"
            ],
            "sequence":4294967294
          }
        ],
        "vout":[
          {
            "value":11.25668171,
            "n":0,
            "scriptPubKey":{
              "asm":"OP_HASH160 1e89327702aab8070fdabbf77d8f2dba252fa122 OP_EQUAL",
              "hex":"a9141e89327702aab8070fdabbf77d8f2dba252fa12287",
              "reqSigs":1,
              "type":"scripthash",
              "addresses":["QPPSjgF39SKvofRubW2V7AzkjhiinToVYr"
              ]
            }
          },
          {
            "value":0.01278967,
            "n":1,
            "scriptPubKey":{
              "asm":"OP_HASH160 712c73eb6e0756e4a0dbe036c4f4ce6913e313c9 OP_EQUAL","hex":"a914712c73eb6e0756e4a0dbe036c4f4ce6913e313c987",
              "reqSigs":1,
              "type":"scripthash",
              "addresses":["QWvPicQHzUuoHuNnQRQmLix1wGjfw35Y2n"
              ]
            }
          }
        ],
        "hex":"020000000001023865e6cacec4e2e9ef75bbe4f66b4133f0a0d671aed2394f4a3ec74b2a4600c20000000017160014f8ee91099da54f084a0fb1dfebbd0be4925d227afeffffff3865e6cacec4e2e9ef75bbe4f66b4133f0a0d671aed2394f4a3ec74b2a4600c20100000017160014dc4598fbf1e17f4de107a1ee3497af7eefac73eafeffffff024b5518430000000017a9141e89327702aab8070fdabbf77d8f2dba252fa12287f78313000000000017a914712c73eb6e0756e4a0dbe036c4f4ce6913e313c98702483045022100b46edd9877231e637eb8868c6fa9240e403dd839fb998d156b9915baa05743e00220393ac1aac6f6a9614d493fae77f9a8ea980ef9dde1bbf420993a733394031c2a012103d6cff4fd64d78a35e45668d7204053cdc6f922a961b962bd863140c1fc44675c02483045022100a537585151f62420ff2a3a236b1320f3f773b73f54bb507afc77f474d9669b38022052c85f0cb25e7e73655eb9f4e5c3f22e1c988eb5eaf7a08ad8c46801ebdfc97b0121031202fb4187b17c2a8360d4f49a87e7c9424aeed3f52d3ec122c10d5a7075a5f408bb0900"},
      {
        "txid":"066b3c59e6b50b50c3295b7a5f633ee3e956b0fc7459401a98cae2db00301731",
        "hash":"066b3c59e6b50b50c3295b7a5f633ee3e956b0fc7459401a98cae2db00301731",
        "version":1,
        "size":520,
        "vsize":520,
        "locktime":0,
        "vin":[
          {
            "txid":"80bdb4c3a25ca14dc430ccadb7fd98fcdac5f44bfcddff824cb02c2fa8e23ad8",
            "vout":1,
            "scriptSig":{
              "asm":"3045022100bd66ccd134e0fe05617d111303a0e46db7f46ba494e66e2193922b68d0480d9a02201e02cdc104fc8c25b3a6e859335131ce620a7cf1ca6e94286b3c81e37b354336[ALL] 02e81c262e9941d15960f53f809525879ea3aa48b711a51e1b26ffaccd177bc550",
              "hex":"483045022100bd66ccd134e0fe05617d111303a0e46db7f46ba494e66e2193922b68d0480d9a02201e02cdc104fc8c25b3a6e859335131ce620a7cf1ca6e94286b3c81e37b354336012102e81c262e9941d15960f53f809525879ea3aa48b711a51e1b26ffaccd177bc550"
            },
            "sequence":4294967295
          },
          {
            "txid":"89757f4305bdebe5408cb6c3e8e06a3a3143ca0e0938876b0552f2ccc98618d6",
            "vout":0,
            "scriptSig":{
              "asm":"3044022013f61e0fe72b191f0a50384fc288ece4e1ac100eac36c3fe1f6b09499a92f29b02205aeb49345de69e40d8146aa11e999b78acba87a70e90c5555e0f7491e847c634[ALL] 02e81c262e9941d15960f53f809525879ea3aa48b711a51e1b26ffaccd177bc550",
              "hex":"473044022013f61e0fe72b191f0a50384fc288ece4e1ac100eac36c3fe1f6b09499a92f29b02205aeb49345de69e40d8146aa11e999b78acba87a70e90c5555e0f7491e847c634012102e81c262e9941d15960f53f809525879ea3aa48b711a51e1b26ffaccd177bc550"
            },
            "sequence":4294967295
          },
          {
            "txid":"89757f4305bdebe5408cb6c3e8e06a3a3143ca0e0938876b0552f2ccc98618d6",
            "vout":1,
            "scriptSig":{
              "asm":"30440220200b4c8c8209a5499be4867e1119277d806e500f39afb91f244a8b9ed81687c202202c6b1a737699e3c9e5e8d1f64489c576df7bbb4006b4115a3aac9b86f923a0c2[ALL] 02e81c262e9941d15960f53f809525879ea3aa48b711a51e1b26ffaccd177bc550",
              "hex":"4730440220200b4c8c8209a5499be4867e1119277d806e500f39afb91f244a8b9ed81687c202202c6b1a737699e3c9e5e8d1f64489c576df7bbb4006b4115a3aac9b86f923a0c2012102e81c262e9941d15960f53f809525879ea3aa48b711a51e1b26ffaccd177bc550"
            },
            "sequence":4294967295
          }
        ],
        "vout":[
          {
            "value":1,
            "n":0,
            "scriptPubKey":{
              "asm":"OP_DUP OP_HASH160 25e429ca48975e86fca6d43befb7485d7e72a878 OP_EQUALVERIFY OP_CHECKSIG",
              "hex":"76a91425e429ca48975e86fca6d43befb7485d7e72a87888ac",
              "reqSigs":1,
              "type":"pubkeyhash",
              "addresses":[
                "miyJdDEh1kQG1GTnU88kXmY7mnYeYQEZpk"
              ]
            }
          },
          {
            "value":1.997,
            "n":1,
            "scriptPubKey":{
              "asm":"OP_DUP OP_HASH160 25e429ca48975e86fca6d43befb7485d7e72a878 OP_EQUALVERIFY OP_CHECKSIG",
              "hex":"76a91425e429ca48975e86fca6d43befb7485d7e72a87888ac",
              "reqSigs":1,
              "type":"pubkeyhash",
              "addresses":["miyJdDEh1kQG1GTnU88kXmY7mnYeYQEZpk"]
            }
          }
        ],
        "hex":"0100000003d83ae2a82f2cb04c82ffddfc4bf4c5dafc98fdb7adcc30c44da15ca2c3b4bd80010000006b483045022100bd66ccd134e0fe05617d111303a0e46db7f46ba494e66e2193922b68d0480d9a02201e02cdc104fc8c25b3a6e859335131ce620a7cf1ca6e94286b3c81e37b354336012102e81c262e9941d15960f53f809525879ea3aa48b711a51e1b26ffaccd177bc550ffffffffd61886c9ccf252056b8738090eca43313a6ae0e8c3b68c40e5ebbd05437f7589000000006a473044022013f61e0fe72b191f0a50384fc288ece4e1ac100eac36c3fe1f6b09499a92f29b02205aeb49345de69e40d8146aa11e999b78acba87a70e90c5555e0f7491e847c634012102e81c262e9941d15960f53f809525879ea3aa48b711a51e1b26ffaccd177bc550ffffffffd61886c9ccf252056b8738090eca43313a6ae0e8c3b68c40e5ebbd05437f7589010000006a4730440220200b4c8c8209a5499be4867e1119277d806e500f39afb91f244a8b9ed81687c202202c6b1a737699e3c9e5e8d1f64489c576df7bbb4006b4115a3aac9b86f923a0c2012102e81c262e9941d15960f53f809525879ea3aa48b711a51e1b26ffaccd177bc550ffffffff0200e1f505000000001976a91425e429ca48975e86fca6d43befb7485d7e72a87888ac202ee70b000000001976a91425e429ca48975e86fca6d43befb7485d7e72a87888ac00000000"
      }
    ],
    "time":1529998899,
    "mediantime":1529998247,
    "nonce":552796160,
    "bits":"1e00a1e2",
    "difficulty":0.006177213786738092,
    "chainwork":"000000000000000000000000000000000000000000000000001dfbe3c95ce11a",
    "previousblockhash":"2205e665fae0b0dd1ecdc0e6ed9462c5ea6e53f94b75e4205a3ba922aa1a9ad0",
    "nextblockhash":"394be8b033e58cd76d8c2baeee63250b0965565e0010d92ab2114b203bad49ce"
  },
  "blockCount": 302441,
  "PendingTransaction": {
    "hash": "a90dbee0f3c47b6bf98a906c40961bdf630bd08f820accd5294c6a7a94ba94b9",
    "hex": "0100000001ce8040049f5099ce975022ef4918c04225a63bea7826d08a1bfd4bae27efcbee010000006b483045022100fc4404ccdb70905fb1ed9c70ddc8e09f95a9c5a9090c1d8a0964f6a208e58fd3022044e39603e6373b017011871d1e1157af5d7abfb095d24f159629c7d6cde6111e012102bbbaad1c7e934fcbc6c5b624cfa1ac611e42fb690edef5b869116ebf76ea267fffffffff02b0300100000000001976a9145c850534fbe75f5a778d71a1eaf4ae8697b0201788ac082c3a0f000000001976a9147eaff793dff4a2ad111c32d763c8d5ae3a5b5f2b88ac00000000",
    "locktime": 0,
    "size": 226,
    "txid": "a90dbee0f3c47b6bf98a906c40961bdf630bd08f820accd5294c6a7a94ba94b9",
    "version": 1,
    "vin": [
      {
        "scriptSig": {
          "asm": "3045022100fc4404ccdb70905fb1ed9c70ddc8e09f95a9c5a9090c1d8a0964f6a208e58fd3022044e39603e6373b017011871d1e1157af5d7abfb095d24f159629c7d6cde6111e[ALL] 02bbbaad1c7e934fcbc6c5b624cfa1ac611e42fb690edef5b869116ebf76ea267f",
          "hex": "483045022100fc4404ccdb70905fb1ed9c70ddc8e09f95a9c5a9090c1d8a0964f6a208e58fd3022044e39603e6373b017011871d1e1157af5d7abfb095d24f159629c7d6cde6111e012102bbbaad1c7e934fcbc6c5b624cfa1ac611e42fb690edef5b869116ebf76ea267f"
        },
        "sequence": 4294967295,
        "txid": "eecbef27ae4bfd1b8ad02678ea3ba62542c01849ef225097ce99509f044080ce",
        "vout": 1
      }
    ],
    "vout": [
      {
        "n": 0,
        "scriptPubKey": {
          "addresses": [
            "mox9p7n3MPFqSXnzSD55c9YdEZo2gxWH1K"
          ],
          "asm": "OP_DUP OP_HASH160 5c850534fbe75f5a778d71a1eaf4ae8697b02017 OP_EQUALVERIFY OP_CHECKSIG",
          "hex": "76a9145c850534fbe75f5a778d71a1eaf4ae8697b0201788ac",
          "reqSigs": 1,
          "type": "pubkeyhash"
        },
        "value": 0.00078
      },
      {
        "n": 1,
        "scriptPubKey": {
          "addresses": [
            "ms4pEdg3zu4cdy9yjye1BUta9mwNGMTKgD"
          ],
          "asm": "OP_DUP OP_HASH160 7eaff793dff4a2ad111c32d763c8d5ae3a5b5f2b OP_EQUALVERIFY OP_CHECKSIG",
          "hex": "76a9147eaff793dff4a2ad111c32d763c8d5ae3a5b5f2b88ac",
          "reqSigs": 1,
          "type": "pubkeyhash"
        },
        "value": 2.554706
      }
    ],
    "vsize": 226
  },
  "rawTransaction": {
    "txid":"6c0ce887a27f70084c4018752b30b0b96ba8cb9968d6d748ead61064defcc549","hash":"dc683fd49e8976766ed8c6c8bc83b2a282e3be514c91dbc43008ed6167135d09","version":1,"size":172,"vsize":145,"locktime":0,"vin":[{"coinbase":"033abb09","sequence":4294967295}],"vout":[{"value":50.02433136,"n":0,"scriptPubKey":{"asm":"OP_DUP OP_HASH160 26e46db5c249c4bcc1ca894e01d96363b3af8b00 OP_EQUALVERIFY OP_CHECKSIG","hex":"76a91426e46db5c249c4bcc1ca894e01d96363b3af8b0088ac","reqSigs":1,"type":"pubkeyhash","addresses":["mj4bcqYcnqJTEiP3iDbQVws8XsmSHzx892"]}},{"value":0.00000000,"n":1,"scriptPubKey":{"asm":"OP_RETURN aa21a9edfb17ae7e98b3027c2b0b3ff262e5843e4146c5071393fc803ad21c54fa74d7eb","hex":"6a24aa21a9edfb17ae7e98b3027c2b0b3ff262e5843e4146c5071393fc803ad21c54fa74d7eb","type":"nulldata"}}],"hex":"010000000001010000000000000000000000000000000000000000000000000000000000000000ffffffff04033abb09ffffffff0270122b2a010000001976a91426e46db5c249c4bcc1ca894e01d96363b3af8b0088ac0000000000000000266a24aa21a9edfb17ae7e98b3027c2b0b3ff262e5843e4146c5071393fc803ad21c54fa74d7eb0120000000000000000000000000000000000000000000000000000000000000000000000000","blockhash":"5437cf69106729a800b50d63e076fb91f8b8f375d6197161f732dc77753dbc48","confirmations":12,"time":1530011204,"blocktime":1530011204
  }
}